:020000040800F2
:100000000040012061150008851300088B130008CB
:1000100091130008971300089D13000800000000CA
:10002000000000000000000000000000A313000812
:10003000AF13000800000000BB130008C71300083E
:10004000A9150008A9150008A9150008A915000898
:10005000A9150008A9150008A9150008A915000888
:10006000A9150008A9150008A9150008A915000878
:10007000A9150008A9150008A9150008A915000868
:10008000A9150008A9150008A9150008A915000858
:10009000A9150008A9150008A9150008A915000848
:1000A000A9150008A9150008A9150008A915000838
:1000B000A9150008A9150008A9150008A915000828
:1000C000A9150008A9150008A9150008A915000818
:1000D000A9150008A9150008A9150008A915000808
:1000E000A9150008A9150008A9150008A9150008F8
:1000F000A915000800000000A9150008A9150008AE
:10010000A9150008A9150008A9150008A9150008D7
:10011000A9150008A9150008A9150008000000008D
:10012000A915000800000000000000000000000009
:0C01300000000000000000005FF808F173
:1001400053B94AB9002908BF00281CBF4FF0FF313E
:100150004FF0FF3000F00CB8ADF1080C6DE904CEA3
:1001600003F040FBDDF804E0DDE9022304B0704752
:10017000704700BF844641EA000313F0030349D1EE
:10018000403A23D30B6803604B6843608B688360FD
:10019000CB68C3600B6903614B6943618B69836101
:1001A000CB69C3610B6A03624B6A43628B6A8362E9
:1001B000CB6AC3620B6B03634B6B43638B6B8363D1
:1001C000CB6BC36340304031403ADBD230320BD38B
:1001D0000B6803604B6843608B688360CB68C360C7
:1001E00010301031103AF3D20C3205D351F8043BE1
:1001F00040F8043B043AF9D2043208D0D2071CBFBD
:1002000011F8013B00F8013B01D30B8803806046E5
:10021000704700BF082A13D38B07B1D010F0030337
:10022000AED0C3F10403D21ADB071CBF11F8013BA7
:1002300000F8013BA4D331F8023B20F8023B9FE7D2
:10024000043AD9D3013A11F8013B00F8013BF9D245
:100250000B7803704B7843708B78837060467047DF
:1002600081F0004102E000BF83F0004330B54FEA67
:1002700041044FEA430594EA050F08BF90EA020FD4
:100280001FBF54EA000C55EA020C7FEA645C7FEA67
:10029000655C00F0E2804FEA5454D4EB5555B8BF8A
:1002A0006D420CDD2C4480EA020281EA030382EAFB
:1002B000000083EA010180EA020281EA0303362D8D
:1002C00088BF30BD11F0004F4FEA01314FF4801C60
:1002D0004CEA113102D0404261EB410113F0004F72
:1002E0004FEA03334CEA133302D0524263EB430329
:1002F00094EA050F00F0A780A4F10104D5F1200EC7
:100300000DDB02FA0EFC22FA05F2801841F1000121
:1003100003FA0EF2801843FA05F359410EE0A5F1F5
:1003200020050EF1200E012A03FA0EFC28BF4CF026
:10033000020C43FA05F3C01851EBE37101F00045DC
:1003400007D54FF0000EDCF1000C7EEB00006EEBE9
:100350000101B1F5801F1BD3B1F5001F0CD3490873
:100360005FEA30004FEA3C0C04F101044FEA4452CA
:1003700012F5800F80F09A80BCF1004F08BF5FEA51
:10038000500C50F1000041EB045141EA050130BD31
:100390005FEA4C0C404141EB0101013C28BFB1F543
:1003A000801FE9D291F0000F04BF01460020B1FA8E
:1003B00081F308BF2033A3F10B03B3F120020CDA61
:1003C0000C3208DD02F1140CC2F10C0201FA0CF03F
:1003D00021FA02F10CE002F11402D8BFC2F1200CA4
:1003E00001FA02F120FA0CFCDCBF41EA0C0190405A
:1003F000E41AA2BF01EB0451294330BD6FEA0404A3
:100400001F3C1CDA0C340EDC04F11404C4F120028D
:1004100020FA04F001FA02F340EA030021FA04F39F
:1004200045EA030130BDC4F10C04C4F1200220FAF6
:1004300002F001FA04F340EA0300294630BD21FA34
:1004400004F0294630BD94F0000F83F4801306BFFA
:1004500081F480110134013D4EE77FEA645C18BFEE
:100460007FEA655C29D094EA050F08BF90EA020F85
:1004700005D054EA000C04BF1946104630BD91EA7D
:10048000030F1EBF0021002030BD5FEA545C05D180
:100490004000494128BF41F0004130BD14F58004BF
:1004A0003CBF01F5801130BD01F0004545F0FE4133
:1004B00041F470014FF0000030BD7FEA645C1ABF68
:1004C000194610467FEA655C1CBF0B46024650EA9F
:1004D000013406BF52EA033591EA030F41F40021CB
:1004E00030BD00BF90F0000F04BF0021704730B551
:1004F0004FF4806404F132044FF000054FF0000126
:1005000050E700BF90F0000F04BF0021704730B5E6
:100510004FF4806404F1320410F0004548BF4042BB
:100520004FF000013EE700BF42004FEAE2014FEA10
:1005300031014FEA02701FBF12F07F4393F07F4FEB
:1005400081F06051704732F07F4208BF704793F0EE
:100550007F4F04BF41F40021704730B54FF4607401
:1005600001F0004521F000411CE700BF50EA010204
:1005700008BF704730B54FF000050AE050EA0102AD
:1005800008BF704730B511F0004502D5404261EB1D
:1005900041014FF4806404F132045FEA915C3FF45E
:1005A000D8AE4FF003025FEADC0C18BF03325FEAFB
:1005B000DC0C18BF033202EBDC02C2F1200300FAAC
:1005C00003FC20FA02F001FA03FE40EA0E0021FAD1
:1005D00002F11444BDE600BF70B54FF0FF0C4CF4BF
:1005E000E06C1CEA11541DBF1CEA135594EA0C0F71
:1005F00095EA0C0F00F0DEF82C4481EA030621EAAC
:100600004C5123EA4C5350EA013518BF52EA0335E6
:1006100041F4801143F4801338D0A0FB02CE4FF098
:100620000005E1FB02E506F00042E0FB03E54FF0C8
:100630000006E1FB03569CF0000F18BF4EF0010EC0
:10064000A4F1FF04B6F5007F64F5407404D25FEABC
:100650004E0E6D4146EB060642EAC62141EA55516F
:100660004FEAC52040EA5E504FEACE2EB4F1FD0CB1
:1006700088BFBCF5E06F1ED8BEF1004F08BF5FEA2F
:10068000500E50F1000041EB045170BD06F00046E1
:1006900046EA010140EA020081EA0301B4EB5C048E
:1006A000C2BFD4EB0C0541EA045170BD41F4801186
:1006B0004FF0000E013C00F3AB8014F1360FDEBFAB
:1006C000002001F0004170BDC4F10004203C35DA87
:1006D0000C341BDC04F11404C4F1200500FA05F30A
:1006E00020FA04F001FA05F240EA020001F00042AB
:1006F00021F0004110EBD37021FA04F642EB060121
:100700005EEA430E08BF20EAD37070BDC4F10C044A
:10071000C4F1200500FA04F320FA05F001FA04F20E
:1007200040EA020001F0004110EBD37041F10001FA
:100730005EEA430E08BF20EAD37070BDC4F1200505
:1007400000FA05F24EEA020E20FA04F301FA05F26D
:1007500043EA020321FA04F001F0004121FA04F215
:1007600020EA020000EBD3705EEA430E08BF20EAE5
:10077000D37070BD94F0000F0FD101F0004640001F
:1007800041EB010111F4801F08BF013CF7D041EAA1
:10079000060195F0000F18BF704703F000465200A5
:1007A00043EB030313F4801F08BF013DF7D043EA76
:1007B0000603704794EA0C0F0CEA135518BF95EA2C
:1007C0000C0F0CD050EA410618BF52EA4306D1D1B3
:1007D00081EA030101F000414FF0000070BD50EAD2
:1007E000410606BF1046194652EA430619D094EA5C
:1007F0000C0F02D150EA013613D195EA0C0F05D146
:1008000052EA03361CBF104619460AD181EA030199
:1008100001F0004141F0FE4141F470014FF0000051
:1008200070BD41F0FE4141F4780170BD70B54FF0EC
:10083000FF0C4CF4E06C1CEA11541DBF1CEA13556C
:1008400094EA0C0F95EA0C0F00F0A7F8A4EB05044E
:1008500081EA030E52EA03354FEA013100F0888045
:100860004FEA03334FF0805545EA131343EA12630E
:100870004FEA022245EA111545EA10654FEA0026C3
:100880000EF000419D4208BF964244F1FD0404F57C
:10089000407402D25B084FEA3202B61A65EB0305D8
:1008A0005B084FEA32024FF480104FF4002CB6EB95
:1008B000020E75EB030E22BFB61A754640EA0C0015
:1008C0005B084FEA3202B6EB020E75EB030E22BF55
:1008D000B61A754640EA5C005B084FEA3202B6EB96
:1008E000020E75EB030E22BFB61A754640EA9C0055
:1008F0005B084FEA3202B6EB020E75EB030E22BF25
:10090000B61A754640EADC0055EA060E18D04FEAE2
:10091000051545EA16754FEA06164FEAC30343EA82
:1009200052734FEAC2025FEA1C1CC0D111F4801F4F
:100930000BD141EA00014FF000004FF0004CB6E748
:1009400011F4801F04BF01430020B4F1FD0C88BFE7
:10095000BCF5E06F3FF6AFAEB5EB030C04BFB6EBF2
:10096000020C5FEA500C50F1000041EB045170BDE5
:100970000EF0004E4EEA113114EB5C04C2BFD4EB12
:100980000C0541EA045170BD41F480114FF0000E96
:10099000013C90E645EA060E8DE60CEA135594EA12
:1009A0000C0F08BF95EA0C0F3FF43BAF94EA0C0F15
:1009B0000AD150EA01347FF434AF95EA0C0F7FF48A
:1009C00025AF104619462CE795EA0C0F06D152EADE
:1009D00003353FF4FDAE1046194622E750EA4106C2
:1009E00018BF52EA43067FF4C5AE50EA41047FF4D3
:1009F0000DAF52EA43057FF4EBAE12E74FF0FF3C38
:100A000006E000BF4FF0010C02E000BF4FF0010C08
:100A10004DF804CD4FEA410C7FEA6C5C4FEA430C81
:100A200018BF7FEA6C5C1BD001B050EA410C0CBFD0
:100A300052EA430C91EA030F02BF90EA020F002032
:100A4000704710F1000F91EA030F58BF994208BF99
:100A500090422CBFD8176FEAE37040F00100704756
:100A60004FEA410C7FEA6C5C02D150EA013C07D1AD
:100A70004FEA430C7FEA6C5CD6D152EA033CD3D0F8
:100A80005DF8040B704700BF8446104662468C46F2
:100A90001946634600E000BF01B5FFF7B7FF002825
:100AA00048BF10F1000F01BD4DF808EDFFF7F4FF4E
:100AB0000CBF012000205DF808FB00BF4DF808EDD9
:100AC000FFF7EAFF34BF012000205DF808FB00BFFC
:100AD0004DF808EDFFF7E0FF94BF012000205DF81E
:100AE00008FB00BF4DF808EDFFF7CEFF94BF0120D3
:100AF00000205DF808FB00BF4DF808EDFFF7C4FFCC
:100B000034BF012000205DF808FB00BF4FEA410C14
:100B10007FEA6C5C02D150EA013C0AD14FEA430CF7
:100B20007FEA6C5C02D152EA033C02D14FF0000034
:100B300070474FF0010070474FEA410212F5001272
:100B400015D211D56FF47873B3EB625212D94FEA14
:100B5000C12343F0004343EA505311F0004F23FAFE
:100B600002F018BF404270474FF00000704750EA53
:100B7000013005D111F0004008BF6FF00040704710
:100B80004FF00000704700BF0348044B834202D07F
:100B9000034B03B118477047C4060020C406002069
:100BA000000000000548064B1B1AD90F01EBA301FA
:100BB000491002D0034B03B118477047C406002008
:100BC000C40600200000000010B5064C237843B98D
:100BD000FFF7DAFF044B13B10448AFF300800123A1
:100BE000237010BDC406002000000000C89E00084D
:100BF00008B5054B1BB105490548AFF30080BDE8BA
:100C00000840FFF7CFBF00BF00000000C80600206B
:100C1000C89E000880B485B000AFF860B960134684
:100C2000FB71FB68BA681A60FB68FA791A7100BF39
:100C30001437BD4680BC704780B588B002AFF860FD
:100C4000B9607A60FB681868FB681B7919467B6895
:100C50009BB24FF0FF320092BA6801F021F90346CF
:100C6000FB75002318461837BD4680BD80B483B09D
:100C700000AF786039607B683A681A6000BF0C3753
:100C8000BD4680BC704780B584B000AF78603960E5
:100C90000023FB7314E03B681B7801221946786837
:100CA00000F017F83B6801333B60FB7B0133FB73BB
:100CB000FB7B102B04D10022C021786800F009F8DA
:100CC0003B681B78002BE6D1002318461037BD4641
:100CD00080BD80B584B000AF78600B46FB701346D2
:100CE000BB707B681B6818687B681B681B7919469A
:100CF0004FF0FF33012201F0D1F90346FB73FB7B78
:100D0000002B00D0EDE700BFFB7823F00F03BB738F
:100D1000FB781B017B73BA7BBB781343DBB243F0D8
:100D20000C03DBB23B72BA7BBB781343DBB243F0FC
:100D30000803DBB27B727A7BBB781343DBB243F0F0
:100D40000C03DBB2BB727A7BBB781343DBB243F09C
:100D50000803DBB2FB727B681B6807F10801042201
:100D60001846FFF769FF0346FB73052000F08CFC73
:100D7000FB7B18461037BD4680BD000080B582B0B1
:100D800000AF78603960064B18683B689AB24FF044
:100D9000FF33796802F050FB00BF0837BD4680BDC5
:100DA0000000002080B584B000AF786039600D4A43
:100DB00007F10C031268114619800233120C1A70E5
:100DC00039687868FFF7DAFF074B186807F10C01FC
:100DD0004FF0FF33022202F02FFB00BF1037BD4659
:100DE00080BD00BFE09E00080000002080B584B0F8
:100DF00000AF7860786802F0C7FFF860F96878683B
:100E0000FFF7D0FF00BF1037BD4680BD80B59AB058
:100E100000AF5648FFF7EAFF5548FFF7E7FF07F135
:100E20004C0300221A605A609A60DA601A614FF629
:100E3000FF73A7F84C30002387F86730002387F84A
:100E4000663027E097F866309BB25B0099B24FF0AE
:100E5000FF330122474801F021F9034687F8633048
:100E600097F86330002B10D197F866301AB297F8D4
:100E70006730520012B25B0068333B4423F81C2CED
:100E800097F86730013387F8673097F86630013399
:100E900087F8663097F96630002BD3DA3648FFF7CB
:100EA000A5FF0023A7F8643024E03B464022002140
:100EB000184602F001FEB7F864305B0068333B442B
:100EC00033F91C3C002B10DDB7F864305B0068334D
:100ED0003B4433F91C3C3846284A402102F082FF4B
:100EE0003B4640211846FFF75DFFB7F864300133F9
:100EF000A7F86430B7F86430092BD6D9B7F94C306D
:100F0000DAB207F144031B491846FFF783FE07F1E5
:100F1000440207F1400311461846FFF7A7FE07F108
:100F20004003002230211846FFF7D3FE07F14003AB
:100F3000002202211846FFF7CCFE07F140030022F1
:100F40000C211846FFF7C5FE07F1400300220121DE
:100F50001846FFF7BEFE07F1400309491846FFF7A0
:100F600092FE00BF6837BD4680BD00BFE49E00080A
:100F7000EC9E0008E00600200C9F0008209F00085F
:100F8000289F000880B500AF2021044800F02AFE09
:100F90004FF47A7000F078FB00BF80BD0000024083
:100FA00080B400AF00BFBD4680BC704780B500AFC5
:100FB00000F0FBFA00F00EF800F0B0F800F056F880
:100FC00000F082F8FFF722FFFFF7DCFFFFF7E8FFF2
:100FD000FAE7000080B592B000AF07F114033422A5
:100FE0000021184602F068FD3B4600221A605A6054
:100FF0009A60DA601A611C4B1B6823F4C0531A4ACA
:1010000043F40063136001237B610523BB6102236A
:10101000BB634FF48033FB634FF480133B644FF4A6
:1010200000037B6407F11403184601F0BFFB03467D
:10103000002B01D000F0E8F80F233B6003237B6016
:101040000023BB600023FB6000233B613B46012182
:10105000184601F0DBFE0346002B01D000F0D4F867
:1010600000BF4837BD4680BD0070004080B500AF6E
:10107000124B134A1A60114B124A5A600F4B00224E
:101080009A600E4B0022DA600C4B4FF480421A61DA
:101090000A4B00225A61094B00229A61074B002239
:1010A000DA61064B00221A62044800F0B5FD0346DF
:1010B000002B01D000F0A8F800BF80BDE0060020A2
:1010C00000540040A086010080B500AF114B124AC9
:1010D0001A60104B4FF4E1325A600E4B00229A60B6
:1010E0000C4B0022DA600B4B00221A61094B0C22D8
:1010F0005A61084B00229A61064B0022DA610548CA
:1011000002F04AF90346002B01D000F07DF800BF41
:1011100080BD00BF340700200038014080B58AB090
:1011200000AF07F1140300221A605A609A60DA6077
:101130001A61324BDB69314A43F00403D3612F4B10
:10114000DB6903F004033B613B692C4BDB692B4AF1
:1011500043F02003D361294BDB6903F02003FB60DC
:10116000FB68264BDB69254A43F00103D361234B1F
:10117000DB6903F00103BB60BB68204BDB691F4ADE
:1011800043F00203D3611D4BDB6903F002037B6074
:101190007B68002220211A4800F00CFD4FF4005318
:1011A0007B614FF48813BB610023FB6107F11403DB
:1011B0001946144800F06EFB0C237B610223BB61CF
:1011C0000023FB6103233B6207237B6207F11403C7
:1011D00019460B4800F05EFB20237B610123BB61B5
:1011E0000023FB6100233B6207F114031946044806
:1011F00000F050FB00BF2837BD4680BD00380240DC
:10120000000002400008024080B400AF72B600BF88
:10121000FEE7000080B584B000AF154B5B6A144A4E
:1012200043F000435362124B5B6A03F00043FB60E0
:10123000FB680F4B1B6A0E4A43F0010313620C4B11
:101240001B6A03F00103BB60BB68094B5B6A084A79
:1012500043F080535362064B5B6A03F080537B601C
:101260007B68072000F0E2FA00BF1037BD4680BD62
:101270000038024080B58AB000AF786007F11403EF
:1012800000221A605A609A60DA601A617B681B68F3
:10129000174A934227D1174BDB69164A43F00203E2
:1012A000D361144BDB6903F002033B613B69C0234C
:1012B0007B611223BB610023FB6103233B62042398
:1012C0007B6207F1140319460B4800F0E3FA094B5F
:1012D0005B6A084A43F400135362064B5B6A03F4EB
:1012E0000013FB60FB6800BF2837BD4680BD00BF10
:1012F00000540040003802400004024080B58AB02B
:1013000000AF786007F1140300221A605A609A60F7
:10131000DA601A617B681B68174A934228D1174B21
:101320001B6A164A43F480431362144B1B6A03F48E
:1013300080433B613B69114BDB69104A43F0010379
:10134000D3610E4BDB6903F00103FB60FB684FF4D4
:10135000C0637B610223BB610023FB6103233B620B
:1013600007237B6207F114031946054800F092FA3F
:1013700000BF2837BD4680BD00380140003802401C
:101380000000024080B400AFFEE780B400AFFEE78B
:1013900080B400AFFEE780B400AFFEE780B400AFDA
:1013A000FEE780B400AF00BFBD4680BC704780B48C
:1013B00000AF00BFBD4680BC704780B400AF00BF27
:1013C000BD4680BC704780B500AF00F041F900BF5A
:1013D00080BD80B400AF01231846BD4680BC704775
:1013E00080B582B000AF7860396002F055FB0346EB
:1013F00016221A604FF0FF3318460837BD4680BDED
:1014000080B582B000AF78604FF0FF317868FFF7A9
:10141000E7FFFEE780B586B000AFF860B9607A609C
:1014200000237B610AE0AFF300800146BB685A1CD1
:10143000BA60CAB21A707B6901337B617A697B68D2
:101440009A42F0DB7B6818461837BD4680BD80B5F0
:1014500086B000AFF860B9607A6000237B6109E074
:10146000BB685A1CBA601B781846AFF300807B69D2
:1014700001337B617A697B689A42F1DB7B681846AD
:101480001837BD4680BD80B483B000AF78604FF0A0
:10149000FF3318460C37BD4680BC704780B483B01C
:1014A00000AF786039603B684FF400525A60002307
:1014B00018460C37BD4680BC704780B483B000AF7F
:1014C0007860012318460C37BD4680BC704780B455
:1014D00085B000AFF860B9607A6000231846143711
:1014E000BD4680BC7047000080B586B000AF786014
:1014F000144A154BD31A7B617B693B61134B1B6804
:10150000002B02D1114B124A1A60104B1A687B68EB
:1015100013443A699A4207D202F0BEFA03460C22FB
:101520001A604FF0FF3309E0084B1B68FB60074B64
:101530001A687B681344054A1360FB68184618371D
:10154000BD4680BD00400120000400007C07002053
:10155000980A002080B400AF00BFBD4680BC704731
:10156000FFF7F8FF0B480C490C4A002302E0D4585F
:10157000C4500433C4188C42F9D3094A094C0023DF
:1015800001E013600432A242FBD302F0E5FAFFF758
:101590000DFD704700000020C40600205CA3000879
:1015A000C4060020980A0020FEE780B582B000AF94
:1015B0000023FB71032000F039F9002000F00EF841
:1015C0000346002B02D00123FB7101E0FFF722FE4E
:1015D000FB7918460837BD4680BD000080B584B051
:1015E00000AF78600023FB73164B1B68002B22D0E2
:1015F000154B1A68134B1B684FF47A71B1FBF3F368
:10160000B2FBF3F3184600F038F90346002B0FD174
:101610007B680F2B09D8002279684FF0FF3000F06B
:1016200010F90A4A7B68136007E00123FB7304E0AA
:101630000123FB7301E00123FB73FB7B184610378A
:10164000BD4680BD0C0000200400002008000020E2
:1016500080B400AF054B1A68054B1B681344034A5E
:10166000136000BFBD4680BC704700BF80070020EC
:101670000C00002080B400AF024B1B681846BD462A
:1016800080BC70478007002080B584B000AF7860D0
:10169000FFF7F0FFB8607B68FB60FB68B3F1FF3FCA
:1016A00004D0094B1B68FA681344FB6000BFFFF7C6
:1016B000E1FF0246BB68D31AFA689A42F7D800BF26
:1016C00000BF1037BD4680BD0C00002080B485B03F
:1016D00000AF78607B6803F00703FB600C4BDB68AE
:1016E000BB60BA684FF6FF031340BB60FB681A0289
:1016F000BB68134343F0BF6343F40033BB60044A49
:10170000BB68D36000BF1437BD4680BC704700BFC4
:1017100000ED00E080B400AF044BDB681B0A03F06F
:1017200007031846BD4680BC704700BF00ED00E0CF
:1017300080B483B000AF03463960FB7197F907307E
:10174000002B0ADB3B68DAB20C4997F9073012012B
:10175000D2B20B4483F800230AE03B68DAB20849AE
:10176000FB7903F00F03043B1201D2B20B441A764B
:1017700000BF0C37BD4680BC704700BF00E100E0F1
:1017800000ED00E080B489B000AFF860B9607A6025
:10179000FB6803F00703FB61FB69C3F10703042B3C
:1017A00028BF0423BB61FB690433062B02D9FB6904
:1017B000033B00E000237B614FF0FF32BB6902FA7C
:1017C00003F3DA43BB681A407B699A404FF0FF315C
:1017D0007B6901FA03F3D9437B680B401343184636
:1017E0002437BD4680BC704780B582B000AF7860BA
:1017F0007B68013BB3F1807F01D301230FE00A4AEC
:101800007B68013B53600F214FF0FF30FFF790FFE3
:10181000054B00229A60044B07221A6000231846E9
:101820000837BD4680BD00BF10E000E080B582B043
:1018300000AF78607868FFF749FF00BF0837BD4602
:1018400080BD80B586B000AF0346B9607A60FB7397
:1018500000237B61FFF75EFF78617A68B968786979
:10186000FFF790FF024697F90F3011461846FFF731
:101870005FFF00BF1837BD4680BD80B582B000AFA6
:1018800078607868FFF7B0FF034618460837BD4612
:1018900080BD000080B487B000AF7860396000235D
:1018A0007B610023FB6000233B6160E13B681A68B9
:1018B00001217B6901FA03F31340FB60FB68002BF5
:1018C00000F052813B685B6803F00303012B05D0F5
:1018D0003B685B6803F00303022B30D17B689B6895
:1018E0003B617B695B00032202FA03F3DB433A6945
:1018F00013403B613B68DA687B695B0002FA03F3E3
:101900003A6913433B617B683A699A607B685B681C
:101910003B6101227B6902FA03F3DB433A6913401E
:101920003B613B685B681B0903F001027B6902FABB
:1019300003F33A6913433B617B683A695A603B6839
:101940005B6803F00303032B17D07B68DB683B6104
:101950007B695B00032202FA03F3DB433A6913401D
:101960003B613B689A687B695B0002FA03F33A6962
:1019700013433B617B683A69DA603B685B6803F05C
:101980000303022B23D17B69DA087B68083253F802
:1019900022303B617B6903F007039B000F2202FAB0
:1019A00003F3DB433A6913403B613B681A697B6987
:1019B00003F007039B0002FA03F33A6913433B6108
:1019C0007B69DA087B680832396943F822107B6842
:1019D0001B683B617B695B00032202FA03F3DB4374
:1019E0003A6913403B613B685B6803F003027B6923
:1019F0005B0002FA03F33A6913433B617B683A697F
:101A00001A603B685B6803F44033002B00F0AC8045
:101A10005E4B1B6A5D4A43F0010313625B4B1B6A1A
:101A200003F00103BB60BB68594A7B699B08023322
:101A300052F823303B617B6903F003039B000F22C4
:101A400002FA03F3DB433A6913403B617B68514A76
:101A5000934225D07B68504A93421FD07B684F4AFF
:101A6000934219D07B684E4A934213D07B684D4A0B
:101A700093420DD07B684C4A934207D07B684B4A17
:101A8000934201D106230CE007230AE0052308E076
:101A9000042306E0032304E0022302E0012300E024
:101AA00000237A6902F00302920093403A691343DB
:101AB0003B6137497B699B0802333A6941F823202F
:101AC0003B4B9B683B61FB68DB433A6913403B61DE
:101AD0003B685B6803F48013002B03D03A69FB6812
:101AE00013433B61324A3B699360314BDB683B6196
:101AF000FB68DB433A6913403B613B685B6803F476
:101B00000013002B03D03A69FB6813433B61284A5A
:101B10003B69D360264B5B683B61FB68DB433A69FA
:101B200013403B613B685B6803F40033002B03D038
:101B30003A69FB6813433B611D4A3B6953601C4B88
:101B40001B683B61FB68DB433A6913403B613B68C0
:101B50005B6803F48033002B03D03A69FB681343BE
:101B60003B61134A3B6913607B6901337B613B68CE
:101B70001A687B6922FA03F3002B7FF497AE00BF4B
:101B800000BF1C37BD4680BC704700BF0038024014
:101B90000000014000000240000402400008024032
:101BA000000C0240001002400014024000180240E5
:101BB0000004014080B483B000AF78600B467B80A6
:101BC00013467B707B78002B03D07A887B689A6100
:101BD00003E07B881A047B689A6100BF0C37BD461E
:101BE00080BC704780B485B000AF78600B467B80C6
:101BF0007B685B69FB607A88FB6813401A04FB68AA
:101C0000D9437B880B401A437B689A6100BF143725
:101C1000BD4680BC7047000080B584B000AF7860DE
:101C20007B68002B01D101232BE17B6893F83D30C9
:101C3000DBB2002B06D17B68002283F83C20786859
:101C4000FFF718FB7B68242283F83D207B681B6824
:101C50001A687B681B6822F001021A607B681B68A7
:101C60001A687B681B6842F400421A607B681B6834
:101C70001A687B681B6822F400421A6001F004FBBA
:101C8000F8607B685B68814A934207D8FB68804AAA
:101C9000934294BF01230023DBB206E0FB687D4A38
:101CA000934294BF01230023DBB2002B01D0012318
:101CB000E7E0FB68784AA2FB03239B0CBB607B68D0
:101CC0001B685B6823F03F017B681B68BA680A43A6
:101CD0005A607B681B681B6A23F03F017B685B6866
:101CE0006A4A934202D8BB68013309E0BB684FF4EB
:101CF000967202FB03F3694AA2FB03239B0901339B
:101D00007A6812680B4313627B681B68DB6923F4F3
:101D10004F4222F0FF027B685B685C498B4219D816
:101D2000FB68591E7B685B685B00B1FBF3F3591CD1
:101D300040F6FC730B40002B0AD0FB68591E7B68F1
:101D40005B685B00B1FBF3F30133C3F30B0351E0BA
:101D500004234FE07B689B68002B11D1FB68581E61
:101D60007B6859680B465B000B44B0FBF3F301330F
:101D7000C3F30B03002B0CBF01230023DBB212E0E3
:101D8000FB68581E7B6859680B469B000B44990002
:101D90000B44B0FBF3F30133C3F30B03002B0CBF75
:101DA00001230023DBB2002B01D0012322E07B685A
:101DB0009B68002B0ED1FB68581E7B6859680B4648
:101DC0005B000B44B0FBF3F30133C3F30B0343F4A9
:101DD00000430FE0FB68581E7B6859680B469B0068
:101DE0000B4499000B44B0FBF3F30133C3F30B0333
:101DF00043F44043796809681343CB617B681B68EF
:101E00001B6823F0C0017B68DA697B681B6A1A4390
:101E10007B681B680A431A607B681B689B6823F415
:101E2000034323F0FF037A6811697A68D26811438B
:101E30007A6812680B4393607B681B68DB6823F049
:101E4000FF017B685A697B689B691A437B681B6842
:101E50000A43DA607B681B681A687B681B6842F07B
:101E600001021A607B6800221A647B68202283F8D2
:101E70003D207B6800221A637B68002283F83E20A5
:101E8000002318461037BD4680BD00BFA086010064
:101E90007F841E00FF083D0083DE1B43D34D62108C
:101EA00080B588B002AFF8607A601A460B467B8135
:101EB00013463B81FFF7DEFB7861FB6893F83D300A
:101EC000DBB2202B40F0E0807B69009319230122D4
:101ED0007049F86800F092FA0346002B01D0022303
:101EE000D3E0FB6893F83C30012B01D10223CCE016
:101EF000FB68012283F83C20FB681B681B6803F029
:101F00000103012B07D0FB681B681A68FB681B687C
:101F100042F001021A60FB681B681A68FB681B68C4
:101F200022F400621A60FB68212283F83D20FB68DE
:101F3000102283F83E20FB6800221A64FB687A684E
:101F40005A62FB683A895A85FB685B8D9AB2FB68D6
:101F50001A85FB68504ADA6279897B693A6AF868BF
:101F600000F0CAF90346002B01D001238DE00023C5
:101F70003B61FB681B685B693B61FB681B689B6995
:101F80003B613B6966E07A69396AF86800F050FBAA
:101F90000346002B0DD0FB681B6C042B07D1FB689C
:101FA0001B681A68FB681B6842F400721A60012300
:101FB0006BE0FB685B6A1A78FB681B681A61FB6858
:101FC0005B6A5A1CFB685A62FB685B8D9BB2013BE3
:101FD0009AB2FB685A85FB681B8D013B9AB2FB687D
:101FE0001A85FB681B685B6903F00403042B1BD193
:101FF000FB681B8D002B17D0FB685B6A1A78FB68A7
:102000001B681A61FB685B6A5A1CFB685A62FB68B2
:102010005B8D9BB2013B9AB2FB685A85FB681B8DB6
:10202000013B9AB2FB681A857A69396AF86800F050
:1020300047FB0346002B0DD0FB681B6C042B07D11C
:10204000FB681B681A68FB681B6842F400721A6020
:1020500001231AE0FB681B8D002B94D1FB681B68E1
:102060001A68FB681B6842F400721A60FB68202241
:1020700083F83D20FB68002283F83E20FB680022A5
:1020800083F83C20002300E0022318461837BD46A1
:1020900080BD00BF020010000000FFFF80B58AB0C5
:1020A00002AFF8607A603B600B467B81FFF7E2FA93
:1020B000F8610023BB61FB6893F83D30DBB2202B55
:1020C00040F01181FB690093192301228849F868C7
:1020D00000F094F90346002B01D0022304E1FB68D1
:1020E00093F83C30012B01D10223FDE0FB68012273
:1020F00083F83C20FB681B681B6803F00103012B7D
:1021000007D0FB681B681A68FB681B6842F0010275
:102110001A60FB681B681A68FB681B6822F400627F
:102120001A60FB68242283F83D20FB6800221A64B1
:10213000FB68704ADA62FB681B681A68FB681B68F8
:1021400042F480721A60FB6900933B6800224FF0F2
:102150000111F86800F052F90346002B0DD0FB681E
:102160001B681B6803F48073B3F5807F03D1FB68A1
:102170004FF400721A640323B6E07B89DBB21A467F
:10218000FB681B6802F0FE021A61FFF773FAF86140
:10219000FB681B685B6903F00203022B0CBF012381
:1021A0000023DBB2FB75FB681B685B6903F480638B
:1021B000B3F5806F0CBF01230023DBB2BB7525E0B4
:1021C000FFF758FA0246FB69D31A3A689A4202D3DB
:1021D0003B68002B03D1FB68A02283F83D20FB68FD
:1021E0001B685B6903F00203022B0CBF0123002371
:1021F000DBB2FB75FB681B685B6903F48063B3F5B6
:10220000806F0CBF01230023DBB2BB75FB6893F822
:102210003D30DBB2A02B05D0FB7D002B02D1BB7D76
:10222000002BCDD0FB68202283F83D20FB681B6883
:102230005B6903F00203022B29D1FB681B681A6853
:10224000FB681B6842F400721A6000233B61FB6864
:102250001B685B693B61FB681B689B693B613B6971
:10226000FB690093192301222149F86800F0C6F8A0
:102270000346002B01D0012336E0FB68202283F8BF
:102280003D20FB68002283F83C2000232CE0FB6803
:102290001B681A68FB681B6842F400721A60FB68CE
:1022A0001B686FF480625A61FB6900931923012255
:1022B0000F49F86800F0A2F80346002B01D0012373
:1022C00012E0BB690133BB61BA697B689A42FFF4D3
:1022D00032AFFB68202283F83D20FB68002283F8A0
:1022E0003C20012300E0022318462037BD4680BD74
:1022F000020010000000FFFF80B588B002AFF86058
:102300007A603B600B467B81FB68DB6A7B617B69A3
:10231000082B06D07B69012B03D07B6913F5803F26
:1023200008D1FB681B681A68FB681B6842F480725E
:102330001A600BE0FB681B6B122B07D1FB681B6854
:102340001A68FB681B6842F480721A603B6800934D
:102350007B6800224FF00111F86800F04FF8034647
:10236000002B0DD0FB681B681B6803F48073B3F56A
:10237000807F03D1FB684FF400721A64032335E0B9
:10238000FB681B69B3F5804F08D17B89DBB21A4625
:10239000FB681B6802F0FE021A611BE07B89DB11FF
:1023A000DBB203F00603DBB263F00F03DAB2FB68C3
:1023B0001B681A613B687A680E49F86800F098F863
:1023C0000346002B01D0012310E07B89DAB2FB68C1
:1023D0001B681A613B687A680749F86800F088F85A
:1023E0000346002B01D0012300E0002318461837D4
:1023F000BD4680BD080001000200010080B584B028
:1024000000AFF860B9603B601346FB7148E03B6881
:10241000B3F1FF3F44D0FFF72DF90246BB69D31A51
:102420003A689A4202D33B68002B39D1BB681B0C37
:10243000DBB2012B0DD1FB681B685B69DA43BB681B
:1024400013409BB2002B0CBF01230023DBB21A46C2
:102450000CE0FB681B689B69DA43BB6813409BB2C6
:10246000002B0CBF01230023DBB21A46FB799A42F2
:1024700016D1FB6800221A63FB68202283F83D20F6
:10248000FB68002283F83E20FB681B6C43F02002AF
:10249000FB681A64FB68002283F83C20012323E0D8
:1024A000BB681B0CDBB2012B0DD1FB681B685B69A1
:1024B000DA43BB6813409BB2002B0CBF01230023FF
:1024C000DBB21A460CE0FB681B689B69DA43BB6809
:1024D00013409BB2002B0CBF01230023DBB21A4632
:1024E000FB799A4293D0002318461037BD4680BD31
:1024F00080B584B000AFF860B9607A603B6071E08D
:10250000FB681B685B6903F48063B3F5806F23D1BC
:10251000FB681B681A68FB681B6842F400721A604B
:10252000FB681B686FF480625A61FB6800221A63C3
:10253000FB68202283F83D20FB68002283F83E20C0
:10254000FB681B6C43F00402FB681A64FB68002202
:1025500083F83C20012367E07B68B3F1FF3F41D063
:10256000FFF788F802463B68D31A7A689A4202D38A
:102570007B68002B36D1BB681B0CDBB2012B0CD166
:10258000FB681B685B69DA43BB6813409BB2002B96
:1025900014BF01230023DBB20BE0FB681B689B69BF
:1025A000DA43BB6813409BB2002B14BF0123002306
:1025B000DBB2002B16D0FB6800221A63FB682022D6
:1025C00083F83D20FB68002283F83E20FB681B6CEB
:1025D00043F02002FB681A64FB68002283F83C2069
:1025E000012321E0BB681B0CDBB2012B0CD1FB6883
:1025F0001B685B69DA43BB6813409BB2002B14BFB6
:1026000001230023DBB20BE0FB681B689B69DA4304
:10261000BB6813409BB2002B14BF01230023DBB225
:10262000002B7FF46DAF002318461037BD4680BDE8
:1026300080B584B000AFF860B9607A6034E0F868C3
:1026400000F086F80346002B01D0012334E0BB687C
:10265000B3F1FF3F28D0FFF70DF802467B68D31A8D
:10266000BA689A4202D3BB68002B1DD1FB681B6875
:102670005B6903F08003802B16D0FB6800221A638D
:10268000FB68202283F83D20FB68002283F83E206F
:10269000FB681B6C43F02002FB681A64FB68002295
:1026A00083F83C20012307E0FB681B685B6903F0AB
:1026B0008003802BC3D1002318461037BD4680BD50
:1026C00080B584B000AFF860B9607A6034E0F86833
:1026D00000F03EF80346002B01D0012334E0BB6834
:1026E000B3F1FF3F28D0FEF7C5FF02467B68D31A3F
:1026F000BA689A4202D3BB68002B1DD1FB681B68E5
:102700005B6903F00403042B16D0FB6800221A63F4
:10271000FB68202283F83D20FB68002283F83E20DE
:10272000FB681B6C43F02002FB681A64FB68002204
:1027300083F83C20012307E0FB681B685B6903F01A
:102740000403042BC3D1002318461037BD4680BDB7
:1027500080B483B000AF78607B681B685B6903F46A
:102760008063B3F5806F1BD17B681B686FF4806258
:102770005A617B6800221A637B68202283F83D201F
:102780007B68002283F83E207B681B6C43F00402C8
:102790007B681A647B68002283F83C20012300E0F8
:1027A000002318460C37BD4680BC704780B588B002
:1027B00000AF78607B68002B01D101231DE3944BAF
:1027C0009B6803F00C03BB61914B9B6803F480335F
:1027D0007B617B681B6803F00103002B7BD0BB6926
:1027E000082B06D0BB690C2B0FD17B69B3F5803F5A
:1027F0000BD1874B1B6803F40033002B6AD07B6836
:102800005B68002B66D10123F7E27B685B68012BD4
:1028100006D17F4B1B687E4A43F4803313602DE062
:102820007B685B68002B0CD1794B1B68784A23F4DA
:1028300080331360764B1B68754A23F48023136042
:102840001CE07B685B68052B0CD1714B1B68704AE0
:1028500043F4802313606E4B1B686D4A43F480334E
:1028600013600BE06A4B1B68694A23F480331360E2
:10287000674B1B68664A23F4802313607B685B68A0
:10288000002B13D0FEF7F6FE386108E0FEF7F2FEEB
:1028900002463B69D31A642B01D90323ADE25C4B9A
:1028A0001B6803F40033002BF0D014E0FEF7E2FEC7
:1028B000386108E0FEF7DEFE02463B69D31A642B5E
:1028C00001D9032399E2524B1B6803F40033002B18
:1028D000F0D100E000BF7B681B6803F00203002B0F
:1028E0005AD0BB69042B05D0BB690C2B19D17B696D
:1028F000002B16D1464B1B6803F00203002B05D0BA
:102900007B68DB68012B01D0012376E2404B5B68DA
:1029100023F4F8527B681B691B023D4913434B604B
:102920003AE07B68DB68002B20D03A4B01221A602A
:10293000FEF7A0FE386108E0FEF79CFE02463B6908
:10294000D31A022B01D9032357E2314B1B6803F042
:102950000203002BF0D02E4B5B6823F4F8527B6807
:102960001B691B022A4913434B6015E0294B0022C7
:102970001A60FEF77FFE386108E0FEF77BFE024634
:102980003B69D31A022B01D9032336E2204B1B6883
:1029900003F00203002BF0D17B681B6803F01003E7
:1029A000002B00F0B880BB69002B70D1184B1B685E
:1029B00003F40073002B05D07B689B69002B01D1C9
:1029C00001231AE27B681A6A114B5B6803F46043C7
:1029D0009A4221D97B681B6A184600F07DFC0346A9
:1029E000002B01D0012308E2094B5B6823F460420D
:1029F0007B681B6A064913434B60054B5B6823F0F9
:102A00007F427B68DB691B06014913434B6020E072
:102A10000038024000004742994B5B6823F4604253
:102A20007B681B6A964913434B60954B5B6823F0A8
:102A30007F427B68DB691B06914913434B607B68CF
:102A40001B6A184600F048FC0346002B01D0012306
:102A5000D3E17B681B6A5B0B01334FF4004202FA3F
:102A600003F3874A9268120902F00F0285498A5CD3
:102A7000D340854A1360854B1B681846FEF7AEFDB0
:102A80000346FB73FB7B002B45D0FB7BB5E17B68EA
:102A90009B69002B29D07E4B01221A60FEF7EAFDCC
:102AA000386108E0FEF7E6FD02463B69D31A022BC7
:102AB00001D90323A1E1724B1B6803F40073002BBF
:102AC000F0D06F4B5B6823F460427B681B6A6C49F3
:102AD00013434B606A4B5B6823F07F427B68DB6982
:102AE0001B06674913434B6015E0694B00221A60CF
:102AF000FEF7C0FD386108E0FEF7BCFD02463B6909
:102B0000D31A022B01D9032377E15D4B1B6803F431
:102B10000073002BF0D17B681B6803F00803002BC7
:102B200030D07B685B69002B16D05A4B01221A60AB
:102B3000FEF7A0FD386108E0FEF79CFD02463B6908
:102B4000D31A022B01D9032357E14D4B5B6B03F0E2
:102B50000203002BF0D015E04E4B00221A60FEF766
:102B600089FD386108E0FEF785FD02463B69D31A0E
:102B7000022B01D9032340E1414B5B6B03F00203BD
:102B8000002BF0D17B681B6803F00403002B00F0DE
:102B9000B5800023FB773A4B5B6A03F08053002B30
:102BA0000DD1374B5B6A364A43F080535362344B46
:102BB0005B6A03F08053BB60BB680123FB77364B35
:102BC0001B6803F48073002B18D1334B1B68324A07
:102BD00043F480731360FEF74DFD386108E0FEF7A3
:102BE00049FD02463B69D31A642B01D9032304E152
:102BF000294B1B6803F48073002BF0D07B689B6823
:102C0000012B06D11E4B5B6B1D4A43F4807353634B
:102C10002DE07B689B68002B0CD1194B5B6B184A2D
:102C200023F480735363164B5B6B154A23F4806364
:102C300053631CE07B689B68052B0CD1104B5B6BCE
:102C40000F4A43F4806353630D4B5B6B0C4A43F4B0
:102C5000807353630BE00A4B5B6B094A23F4807368
:102C60005363074B5B6B064A23F4806353637B68B3
:102C70009B68002B24D0FEF7FDFC386119E000BFF3
:102C800000380240489F000804000020080000208F
:102C9000200047428006474200700040FEF7EAFCF1
:102CA00002463B69D31A41F28832934201D9032389
:102CB000A3E0544B5B6B03F40073002BEED014E0E5
:102CC000FEF7D8FC38610AE0FEF7D4FC02463B6907
:102CD000D31A41F28832934201D903238DE0494B44
:102CE0005B6B03F40073002BEED1FB7F012B05D14E
:102CF000444B5B6A434A23F0805353627B685B6AB0
:102D0000002B79D0BB690C2B56D07B685B6A022BF9
:102D10003BD13D4B00221A60FEF7ACFC386108E065
:102D2000FEF7A8FC02463B69D31A022B01D9032304
:102D300063E0344B1B6803F00073002BF0D1314B80
:102D40009B6823F47D027B68996A7B68DB6A194380
:102D50007B681B6B0B432B4913438B602A4B01226F
:102D60001A60FEF787FC386108E0FEF783FC024634
:102D70003B69D31A022B01D903233EE0214B1B6888
:102D800003F00073002BF0D036E01F4B00221A60D6
:102D9000FEF770FC386108E0FEF76CFC02463B6908
:102DA000D31A022B01D9032327E0164B1B6803F02B
:102DB0000073002BF0D11FE07B685B6A012B01D10F
:102DC00001231AE00F4B9B687B617B6903F480321F
:102DD0007B689B6A9A420DD17B6903F470127B6811
:102DE000DB6A9A4206D17B6903F440027B681B6B65
:102DF0009A4201D0012300E0002318462037BD4647
:102E000080BD00BF003802406000474280B584B0FA
:102E100000AF786039607B68002B01D101231AE193
:102E20008F4B1B6803F001033A689A4219D93B683B
:102E3000012B05D18A4B1B68894A43F004031360B8
:102E4000874B1B6823F0010285493B6813430B60E5
:102E5000834B1B6803F001033A689A4201D00123B7
:102E6000F9E07B681B6803F00203002B08D07D4B60
:102E70009B6823F0F0027B689B687A4913438B6060
:102E80007B681B6803F00103002B00F08E807B68D9
:102E90005B68022B07D1734B1B6803F40033002BD4
:102EA00021D10123D7E07B685B68032B07D16D4BF1
:102EB0001B6803F00073002B15D10123CBE07B6866
:102EC0005B68012B07D1674B1B6803F00203002BE3
:102ED00009D10123BFE0634B1B6803F40073002B8F
:102EE00001D10123B7E05F4B9B6823F003027B68AD
:102EF0005B685C4913438B60FEF7BCFBF8607B6842
:102F00005B68022B12D10AE0FEF7B4FB0246FB68B5
:102F1000D31A41F28832934201D903239BE0514BEB
:102F20009B6803F00C03082BEED13EE07B685B68E6
:102F3000032B12D10AE0FEF79DFB0246FB68D31A71
:102F400041F28832934201D9032384E0454B9B68C8
:102F500003F00C030C2BEED127E07B685B68012BA0
:102F60001DD10AE0FEF786FB0246FB68D31A41F248
:102F70008832934201D903236DE03A4B9B6803F0FA
:102F80000C03042BEED110E0FEF774FB0246FB6845
:102F9000D31A41F28832934201D903235BE0314BCB
:102FA0009B6803F00C03002BEED12D4B1B6803F044
:102FB00001033A689A4219D23B68012B05D1284B8C
:102FC0001B68274A43F004031360254B1B6823F05A
:102FD000010223493B6813430B60214B1B6803F03C
:102FE00001033A689A4201D0012334E07B681B68F0
:102FF00003F00403002B08D01A4B9B6823F4E06213
:103000007B68DB68174913438B607B681B6803F0A0
:103010000803002B09D0134B9B6823F460527B6894
:103020001B69DB000F4913438B6000F023F8024655
:103030000C4B9B681B0903F00F030B49CB5C22FA76
:1030400003F30A4A13600A4B1B681846FEF7C6FAD8
:103050000346FB72FB7A18461037BD4680BD00BFA1
:10306000003C024000380240489F00080400002055
:10307000080000202DE9B04F92B000AF794B9B685B
:10308000FB63FB6B03F00C030C2B0DD00C2B00F23D
:10309000D580042B02D0082B03D0CFE0724B3B64C9
:1030A000DAE0724B3B64D7E0FB6B9B0C03F00F0242
:1030B0006F4B9B5CBB63FB6B9B0D03F00303013306
:1030C0007B63684B9B6803F48033002B5DD0BB6B44
:1030D00000221846114604460D4622462B464FF064
:1030E00000004FF00001590141EAD261500102464F
:1030F0000B462146511A3961294663EB01037B6176
:103100004FF000024FF00003D7E904AB59468B01A2
:10311000514643EA916351468A01D446B2EB0C080A
:10312000594663EB01094FF000024FF000034FEAEC
:10313000C90343EA58734FEAC802904699462346AA
:1031400018EB0303BB602B4649EB0303FB604FF016
:1031500000024FF00003D7E9024529464B02204602
:103160002946044643EAD45301464A02104619460A
:103170007B6B0022BB62FA62D7E90A23FCF7E0FF0F
:1031800002460B4613467B6455E0BB6B00223B6254
:103190007A62D7E9088942464B464FF000004FF06B
:1031A0000001590141EAD261500102460B46C44672
:1031B000B2EB0C0A404649468C4663EB0C0B4FF0D1
:1031C00000024FF000034FEA8B1343EA9A634FEA81
:1031D0008A12B2EB0A0463EB0B054FF000024FF0CA
:1031E0000003EB0043EA5473E20014461D46034615
:1031F000E3183B600B4645EB03037B604FF0000296
:103200004FF00003D7E9004529468B0220462946A6
:10321000044643EA945301468A02104619467B6BE2
:103220000022BB61FA61D7E90623FCF789FF024659
:103230000B4613467B647B6C3B640DE0094B5B687B
:103240005B0B03F007033B633B6B01334FF400421E
:1032500002FA03F33B6400BF3B6C18464837BD4697
:10326000BDE8B08F003802400024F40000127A005C
:103270003C9F000880B400AF024B1B681846BD4657
:1032800080BC70470400002080B500AFFFF7F2FF5C
:103290000246054B9B681B0A03F007030349CB5CFE
:1032A00022FA03F3184680BD00380240589F0008F8
:1032B00080B500AFFFF7DEFF0246054B9B68DB0AD7
:1032C00003F007030349CB5C22FA03F3184680BDE1
:1032D00000380240589F000880B487B000AF786083
:1032E00000233B61294B9B6803F0F003002B2CD19A
:1032F000264B5B6A03F08053002B05D0244B1B68E0
:1033000003F4C0537B6116E0204B5B6A1F4A43F015
:10331000805353621D4B5B6A03F08053FB60FB6874
:103320001B4B1B6803F4C0537B61184B5B6A174A45
:1033300023F0805353627B69B3F5C05F05D17B688E
:10334000B3F5404F01D101233B613B69012B05D10E
:10335000104B1B680F4A43F0040313600D4B1B68AE
:1033600023F001020B493B6913430B60094B1B68B7
:1033700003F001033A699A4201D0012300E00023DF
:1033800018461C37BD4680BC704700BF003802405D
:1033900000700040003C024080B582B000AF786011
:1033A0007B68002B01D1012342E07B6893F8413018
:1033B000DBB2002B06D17B68002283F840207868BE
:1033C000FDF79CFF7B68242283F841207B681B6803
:1033D000DA687B681B6822F40052DA60786800F0D3
:1033E0001DF97B681B681A697B681B6822F4904290
:1033F0001A617B681B685A697B681B6822F02A0285
:103400005A617B681B68DA687B681B6842F400526B
:10341000DA607B6800225A647B68202283F84120AE
:103420007B68202283F842207B6800225A630023B5
:1034300018460837BD4680BD80B58AB002AFF86037
:10344000B9603B601346FB8000237B61FB6893F807
:103450004130DBB2202B6DD1BB68002B02D0FB8842
:10346000002B01D1012366E0FB6800225A64FB684F
:10347000212283F84120FEF7FDF87861FB68FA8885
:103480009A84FB68FA88DA84FB689B68B3F5805FEE
:1034900008D1FB681B69002B04D10023FB61BB68CA
:1034A000BB6103E0BB68FB610023BB612AE03B68B2
:1034B00000937B6900228021F86800F040F8034601
:1034C000002B01D0032336E0FB69002B0BD1BB6935
:1034D0001B881A46FB681B68C2F308025A60BB6966
:1034E0000233BB6107E0FB691A78FB681B685A600E
:1034F000FB690133FB61FB68DB8C9BB2013B9AB239
:10350000FB68DA84FB68DB8C9BB2002BCFD13B6875
:1035100000937B6900224021F86800F010F8034610
:10352000002B01D0032306E0FB68202283F8412012
:10353000002300E0022318462037BD4680BD80B539
:1035400090B000AFF860B9603B601346FB7150E08B
:10355000BB6CB3F1FF3F4CD0BB6C002B07D0FEF728
:1035600089F802463B68D31ABA6C9A4241D2FB688A
:103570001B680C33BB62BB6A53E8003F7B627B6A0B
:1035800023F4D073FB63FB681B680C33FA6B7A631C
:103590003B63396B7A6B41E80023FB62FB6A002BCB
:1035A000E5D1FB681B6814337B617B6953E8003FFE
:1035B0003B613B6923F00103BB63FB681B68143369
:1035C000BA6B3A62FB61F9693A6A41E80023BB6170
:1035D000BB69002BE5D1FB68202283F84120FB6802
:1035E000202283F84220FB68002283F84020032336
:1035F0000FE0FB681B681A68BB681340BA689A4200
:103600000CBF01230023DBB21A46FB799A429FD0FC
:10361000002318464037BD4680BD000080B584B009
:1036200000AF78607B681B681B6923F440517B689E
:10363000DA687B681B680A431A617B689A687B6852
:103640001B691A437B685B691A437B68DB69134318
:10365000BB607B681B68DB6823F4164323F00C0314
:103660007A681268B9680B43D3607B681B685B6932
:1036700023F440717B689A697B681B680A435A612E
:103680007B681B68554A934203D1FFF711FEF8602F
:1036900002E0FFF7F9FDF8607B68DB69B3F5004FE6
:1036A0004CD1FA6813469B0013449A001A447B6875
:1036B0005B685B00B2FBF3F3494AA2FB03235B099F
:1036C0001901FA6813469B0013449A001A447B6858
:1036D0005B685B00B2FBF3F2414BA3FB02035B09A7
:1036E000642000FB03F3D31ADB0032333C4AA2FB15
:1036F00003235B095B0003F4F8731944FA6813466B
:103700009B0013449A001A447B685B685B00B2FB21
:10371000F3F2334BA3FB02035B09642000FB03F3CA
:10372000D31ADB0032332E4AA2FB03235B0903F0DA
:1037300007027B681B680A449A604AE0FA681346ED
:103740009B0013449A001A447B685B689B00B2FBA1
:10375000F3F3234AA2FB03235B091901FA6813461A
:103760009B0013449A001A447B685B689B00B2FB81
:10377000F3F21B4BA3FB02035B09642000FB03F382
:10378000D31A1B013233164AA2FB03235B0903F051
:10379000F0031944FA6813469B0013449A001A4434
:1037A0007B685B689B00B2FBF3F20D4BA3FB02034B
:1037B0005B09642000FB03F3D31A1B013233084A70
:1037C000A2FB03235B0903F00F027B681B680A441A
:1037D0009A6000BF1037BD4680BD00BF0038014071
:1037E0001F85EB512DE9F047089D0E4604468E4695
:1037F000002B4CD18A429446B2FA82F362D953B17B
:1038000002FA03FCC3F1200201FA03FE20FA02F2DD
:1038100042EA0E0E9C404FEA1C47BEFBF7F11FFA2E
:103820008CF607FB11EE01FB06F0220C42EA0E4279
:1038300090420AD91CEB020201F1FF3E80F00E819A
:10384000904240F20B8102396244121AB2FBF7F047
:1038500007FB102200FB06F6A4B244EA0244A6428B
:103860000AD91CEB040400F1FF3280F0F980A64273
:1038700040F2F6806444023840EA01400021A41B73
:103880001DB1DC400023C5E90043BDE8F0878B4251
:1038900005D90DB1C5E9000100210846F5E7B3FAE5
:1038A00083F1002942D1B34202D3824200F2EE807A
:1038B000841A66EB030201209646002DE5D0C5E987
:1038C000004EE2E7002B40F08C80881A0121170C93
:1038D00096B2B0FBF7FE07FB1E00220C42EA004244
:1038E00006FB0EF0904208D91CEB02020EF1FF38E5
:1038F00002D2904200F2CC80C646121AB2FBF7F018
:1039000007FB102200FB06F6A4B244EA0244A642DA
:1039100008D91CEB040400F1FF3202D2A64200F2E7
:10392000B2801046A41B40EA0E40A9E7C1F120076F
:103930008B4022FA07FC4CEA030C26FA07FA4FEAFE
:103940001C48BAFBF8FE06FA01F308FB1EAA1FFA90
:103950008CF620FA07F400FA01F90EFB06F0234377
:103960001C0C44EA0A44A04202FA01F20BD91CEBF7
:1039700004040EF1FF3A80F08480A04240F281807E
:10398000AEF1020E6444241A98B2B4FBF8F308FBBB
:10399000134403FB06F640EA0444A64208D91CEB94
:1039A000040403F1FF3068D2A64266D9023B6444A6
:1039B00043EA0E40A41BA0FB02E6B4427346B046A5
:1039C00052D34FD05DB1B9EB030264EB080404FAA3
:1039D00007F722FA01F31F43CC40C5E90074002128
:1039E00053E702FA03FCC3F12000C1404FEA1C4731
:1039F000B1FBF7FE07FB1E1124FA00F09E40304396
:103A0000020C1FFA8CF642EA01420EFB06F19142CB
:103A100004FA03F409D91CEB02020EF1FF382ED28E
:103A200091422CD9AEF1020E6244521AB2FBF7F168
:103A300007FB112280B240EA024001FB06F28242FB
:103A400008D91CEB000001F1FF3814D2824212D9D0
:103A500002396044801A41EA0E413AE77146F4E6C1
:103A6000104609E7F145ADD2BEEB020366EB0C064A
:103A70000138B046A6E74146ECE7034698E7C6465C
:103A8000D3E7D6467FE7644402384BE7084614E79D
:103A9000AEF1020E624430E7014B1868704700BF78
:103AA00014000020024B13B1024800F099B870478F
:103AB00000000000A93B000870B5860747D0541EDF
:103AC000002A3ED00346CAB201E0013C39D303F8D4
:103AD000012B9D07F9D1032C2CD9CDB205EB05257F
:103AE0000F2C1A4605EB054534D9A4F1100C2CF027
:103AF0000F0603F1100EB6444FEA1C1CC2E9005534
:103B0000C2E9025510327245F8D10CF1010214F0ED
:103B10000C0F03EB021204F00F0C13D0ACF10403F2
:103B200023F003030433134442F8045B9342FBD1B4
:103B30000CF003042CB1C9B21C4403F8011BA342CE
:103B4000FBD170BD64461346002CF4D1F9E703465F
:103B50001446C0E7A446E1E770B50F4B0F4DAB42EA
:103B6000A3EB050607D00024B61055F8043B01343A
:103B70009847A642F9D806F0A7F9094D094B5E1BF4
:103B8000AB424FEAA60606D0002455F8043B0134A8
:103B90009847A642F9D870BD50A3000850A300086A
:103BA00050A3000858A3000838B5074D074C2C1B3C
:103BB000A41005D0013C55F8043D9847002CF9D1DC
:103BC000BDE8384006F086B95CA3000858A3000899
:103BD000704700BF704700BF704700BF704700BF0D
:103BE000002301461A46184601F054BF024A034911
:103BF000034800F081B900BF38010020DD600008F3
:103C0000180000200C4B416810B59942044601D0C1
:103C100002F064FAA168094B994202D0204602F0F2
:103C20005DFAE168064B994204D02046BDE8104099
:103C300002F054BA10BD00BF94070020FC0700201A
:103C4000640800202DE9F84300250423304C314A54
:103C50003149DFF8C890DFF8C880324F324E11602A
:103C600004F15C0029460822C4E90335C4E9005583
:103C7000C4E90555A5606566FFF71EFF04F158000D
:103C8000C4E90749C4E90987E662FFF7A1FF274BAA
:103C90002946082204F1C4006367C4E91A55C4E93F
:103CA0001E552567C4F8CC50C4F88050FFF704FFB8
:103CB00004F1680304F1C000C4F88430C4E9229818
:103CC000C4E92476FFF784FF194B294604F5967062
:103CD0000822C4F8DC30C4E93455C4E93855C4F8C6
:103CE000D850C4F83451C4F8E850FFF7E5FE04F1A9
:103CF000D003C4E93D87C4F8F09004F59470C4F88B
:103D0000FC60C4F8EC30BDE8F843FFF761BF00BFCA
:103D100094070020CC080020ED3B0008693E000815
:103D20008D3E0008CD3E0008F13E0008090001006C
:103D30001200020010B504460A48FFF74DFF636BFE
:103D400023B9094B094A1B68626323B1BDE81040DF
:103D50000448FFF743BFFFF775FFBDE81040014877
:103D6000FFF73CBF90070020CC080020053C00086E
:103D70000148FFF731BF00BF900700200148FFF75F
:103D80002DBF00BF9007002020F0030110F00300BA
:103D9000C0F1000051F8043B00F1040C4FEACC0CD8
:103DA0006FF000021CBF22FA0CF213434FF0010C1B
:103DB0004CEA0C2C4CEA0C4CA3EB0C0222EA03025A
:103DC00012EACC1204BF51F8043B0430F4D0C2F123
:103DD000000102EA0102B2FA82F2C2F11F0200EB14
:103DE000D20070470CB410B51E4B00291C689CB063
:103DF00033DB4FF402734FF6FF7CADF814300290C2
:103E000006901FAB16D001391E9A049107912046E7
:103E100002A90193ADF816C000F0A6F8421C01DA21
:103E20008B2323600022029B1A701CB0BDE8104057
:103E300002B070470491079120461E9A02A901938F
:103E4000ADF816C000F090F8431C01DA8B23236014
:103E50001CB0BDE8104002B070478B234FF0FF301C
:103E60002360F5E71400002010B50C46B1F90E10E0
:103E700003F09AFC002803DB236D0344236510BD87
:103E8000A38923F48053A38110BD00BF2DE9F04125
:103E90000C46B1F90C101F46CB05054616460BD44F
:103EA00021F48051A1813B4632462846B4F90E10D8
:103EB000BDE8F04100F042B8B4F90E100223002230
:103EC00003F05CFCB4F90C10EAE700BF10B50C4637
:103ED000B1F90E1003F052FCB4F90C30421C0EBFC5
:103EE00023F4805343F480532065A38110BD00BFA9
:103EF000B1F90E1003F062B92DE9F8434FF0000953
:103F000080460F461646D6E90154013D10D4A389D8
:103F1000012B08D9B4F90E30013304D021464046B4
:103F2000B84749EA0009013D6B1C04F16804EED171
:103F30003668002EE7D14846BDE8F88338B50C4610
:103F4000114600228446074D20462A601A466446E0
:103F5000FDF77DFA431C00D038BD2B68002BFBD049
:103F6000236038BD940A00202DE9F04FDDB00C46E7
:103F700091460D910F93834602F0ACF80368184602
:103F80001A93FFF701FF0822189000212CA8FFF7D1
:103F900093FDA389180603D52369002B00F015872C
:103FA000002300249E46CDE93133002333AACDE916
:103FB0001634DA4614464D46CDE91BEE3092CDF864
:103FC00064E0CDF880E0CDF874E0CDF828E0CDF8DD
:103FD00048E02F466E4BD3F8E46002F075F80DF11F
:103FE000B00C03463A46504628A9CDF800C0B04769
:103FF000002800F09F80C0F29580289B252B01D0DF
:104000000744E7E7B7EB0508064640F09780002233
:104010004FF0FF33934609937B787E1C8DF89720F1
:104020000B9299460136A9F120035A2B00F2B28077
:10403000DFE813F0F302B000B000EF02B000B00010
:10404000B000FD02B000B0006A003502B0002702E7
:10405000D202B000CE025B005B005B005B005B0045
:104060005B005B005B005B00B000B000B000B00024
:10407000B000B000B0002801B000AA013E02280143
:1040800028012801B000B000B000B0003A02B00032
:10409000B000A802B000B000B000D001B000BC0277
:1040A000B000B0008A06B000B000B000B000B000B0
:1040B000B000B000B0002801B000AA010102280140
:1040C000280128012B0201027400B0006402B00034
:1040D0005502AF066E027400B000D0017200AC064B
:1040E000B000B000B206B00072000022A9F13003A7
:1040F00016F8019B02EB820203EB4202A9F13003A6
:10410000092BF5D90B928EE70F9B53F8042B002A4D
:104110000B920F93C0F2B281337882E733784BF081
:10412000200B7EE7082200212CA8FFF7C5FC012008
:1041300007444FE7B7EB0508064610D0329BC4E9A9
:10414000005843443293319B0133072B319315DCE4
:1041500008340A9B43440A93002E7FF458AF329BE5
:10416000002B41F05E810D9B9B8903F04003002BE7
:1041700041F080830A985DB0BDE8F08F50460D99FC
:1041800030AA03F047FB0028EDD133ACE1E700BFD4
:10419000580500201096B9F1000FE0D0012300224D
:1041A0008DF80C91069343AD8DF897200C93CDE9D3
:1041B00013220E92099211921BF0020302D006996B
:1041C000023106911BF08408329E05D10B990698A6
:1041D0000F1A002F00F39B806AB101226260319AAE
:1041E000013601320DF19701072A32963192216092
:1041F00000F3D883083463B102236360319B023635
:10420000013326AA072B32963193226000F3BF8335
:104210000834B8F1800F00F0BF82099B0C9A9F1AF6
:10422000002F00F3F9821BF4807F40F01E820C9B6C
:1042300025601E446360319B32960133072B319316
:1042400000F33F8308341BF0040F05D00B9B069A44
:104250009D1A002D00F3B383DDE90A3206998A42E4
:10426000ACBF9B185B180A93002E40F00883002314
:1042700031930E9B1BB150460E9903F04DF933ACB0
:10428000109DA6E60F9B1096073323F00703F3E873
:1042900002670F9327F000431F931E964FF0FF32E3
:1042A000DDE91E01B24BCDE91667FCF72FFC0028B3
:1042B00040F0F484DDE91E014FF0FF32AC4BFCF717
:1042C00007FC002840F0EA840022002330463946EB
:1042D000FCF7F4FB002840F0B2879DF897200021FE
:1042E0000320A44DA44B2BF0800B0E910690B9F146
:1042F000470FD8BF1D46CDE9131109910C901191BC
:10430000002A3FF459AF069B0133069354E7102F60
:10431000319A41F30D82DFF864C2214630460D9C8C
:104320002E46CDF854C06546219304E0103F102F6F
:1043300001F1080116DD102301321030072ACDE902
:1043400031200D604B60F1DD2146504630AA03F06C
:1043500061FA002840F09B82DDE93120103F102FE8
:1043600033A9E8DC35460C460646219B01321599F7
:104370003E44072ACDE931262160676000F381863B
:104380009DF89720083427E70F9BB9F1430F10964B
:1043900003F1040603D01BF0100F00F00185082282
:1043A00000212EA8FFF788FB0F9A43AD2EAB2946BC
:1043B0005046126801F062FE034601330C9001F092
:1043C00054820C9B23EAE373069300220F968DF828
:1043D0009720ECE600230F9F109657F8045B8DF8AA
:1043E0009730002D00F00085B9F1530F00F094864E
:1043F0001BF01003119340F08F86099B002BC1F234
:104400001B801A462846119902F0A8FF0E9000283A
:1044100001F081820E9B11995B1B0C9323EAE373DD
:104420004FF07309CDE913119DF897200F9709916B
:1044300006930E9164E71BF0200F10963ED00F9B61
:10444000073323F007031846596850F8083B0A461B
:104450000F900029C0F2CA8309990029C0F288820E
:1044600053EA02012BF0800740F08382099A002A68
:1044700040F08482BB460C925CAD64E10B9B5B42D6
:104480000B9333784BF0040BCBE53378682B03BFE9
:1044900073784BF4007B01364BF0400BC1E52B23C6
:1044A0008DF897303378BCE533784BF0080BB8E5DE
:1044B0004BF0100B1BF0200F1096C0D10F9A1BF081
:1044C000100F52F8043B0F9240F0C2831BF0400FD4
:1044D00000F0BA8343F3C03211461BB2B9E71BF0B8
:1044E000200F109600F0C5830F9B0A9A1B681A6074
:1044F000D2175A600F9B04330F93C1E633786C2BAD
:1045000003BF73784BF0200B01364BF0100B88E59E
:1045100047F630030F9AADF8983052F8043B022169
:104520000F924FF078090022154810964BF00207C1
:1045300019900020099D8DF89700002DC0F2EC80A5
:1045400053EA020027F0800B40F0E580002D40F098
:10455000D285002940F0538317F001030C9300F03B
:10456000718330230DF26F158DF86F31EBE000BFD2
:10457000FFFFEF7F649F0008609F000818A10008FC
:10458000709F000810964BF0100B1BF0200200F0FB
:1045900012830F9B073323F0070319465A6851F81B
:1045A000083B0F9100212BF48067C2E710964BF077
:1045B000100717F0200200F00B830F9B0121073337
:1045C00023F0070318465A6850F8083B0F90B0E7ED
:1045D00033784BF0800B24E5314611F8019BB9F19B
:1045E0002A0F01F02882A9F13003092B98BF00227D
:1045F00001F2A28011F8019B02EB820203EB42025E
:10460000A9F13003092BF5D942EAE2730E4609936A
:1046100009E533784BF0010B03E59DF897203378DB
:10462000002A7FF4FEAC20228DF89720F9E4504652
:1046300001F050FD436818461D93FFF7A5FB20903D
:104640000746504601F046FD83681B93002F3FF458
:1046500063AD1B9A3378002A3FF4E3AC1278002A4A
:104660003FF4DFAC4BF4806BDBE4B9F1650F40F352
:104670003781DDE9160100220023FCF715FA002836
:1046800000F0D88101236360319B934A01330136E6
:10469000072B32963193226000F332850834279B32
:1046A000129A934280F2C982189B1A9A1E44C4E956
:1046B0000023319B32960133072B319300F37A8329
:1046C0000834129B5D1E002D7FF7BDAD102D319B70
:1046D00040F3EB80DFF804921027DDF83480CDF84A
:1046E000549004E00834103D102D40F3E080013375
:1046F0001036072BC4E90097CDE93136F2DD41468B
:10470000504630AA03F086F8002840F0C080DDE96A
:10471000313633ACE7E75F46012900F02A810229F0
:104720005CAD1ED1199803F00F01415C1B0943EAEF
:104730000273120905F8011D53EA0201F3D1BB46C9
:104740005CAB5B1B0C93099A0C9900238A42B8BF9F
:104750000A46CDE9133306920E939DF897201193E4
:10476000CEE503F00701DB0843EA4273D20830319B
:1047700053EA0206284605F8011DF2D1FB07DED5F3
:104780003029DCD03023023805F8013C5CAB1B1A21
:10479000BB4605460C93D6E70B9B069A9F1A002F43
:1047A0007FF73BAD102F319B41F35B804B48224696
:1047B00031464FF0100806460D9C159004E0103F5E
:1047C000102F02F1080214DD01331031072BC2E96A
:1047D0000068CDE93131F2DD2146504630AA03F0C0
:1047E00019F8002853D1DDE93131103F102F33AAD9
:1047F000EADC14460E460133159A3E44072BCDE9F8
:1048000031362260676000F3C084099B0C9A08343B
:104810009F1A002F7FF707AD304A102F319B15925A
:1048200021DD32464FF010082E460D9D04E0103F6A
:10483000102F04F1080414DD013328491032072B2E
:10484000C4E90018CDE93132F1DD2946504630AADD
:1048500002F0E0FFD8B9DDE93132103F102F33AC60
:10486000EADC354616460133159A3E44072BCDE95E
:1048700031362260676000F392810834D3E45046F9
:104880000D9930AA02F0C6FF00283FF4F0ACD346E1
:104890000E9B002B3FF467AC58460E9902F03CFE8D
:1048A0000D9B9B8903F0400361E40C4A1592159A15
:1048B00001332E44072B22606560CDE931367FF746
:1048C000C1AC50460D9930AA02F0A4FF0028DED1F9
:1048D000329E33ACB7E400BFA09F000808A10008D7
:1048E000129B319F012B06F1010607F1010704F12C
:1048F000080940F310810123072FCDE931762560A7
:10490000636000F38081189B01371A9A1E44072FB9
:10491000C9E90023CDE9317600F3828109F1080964
:10492000129B0022DDE916015C1E0023FCF7BCF897
:10493000002840F00981013701352644072FCDE9D1
:104940003176C9F80050C9F8044000F3F08009F14D
:1049500008091C9B01371E44C9F80430072F2AABF5
:10496000CDE93176C9F80030ABDC09F108046AE41E
:104970005F460A2B72F1000180F0258330338DF8F9
:104980006F310123BB460C930DF26F15DBE65046E9
:104990000D9930AA02F03EFF00287FF478AF329ED6
:1049A00033AC36E450460D9930AA159302F032FF2D
:1049B00000287FF46CAF329E159B33AC1BE4102DA6
:1049C000319B40F33187DFF8CC821027DDF834903B
:1049D000CDF8548004E0103D102D04F1080415DDDD
:1049E00001331036072BC4E90087CDE93136F2DDFB
:1049F0004946504630AA02F00DFF00287FF447AF29
:104A0000DDE93136103D102D33ACE9DC0133159A68
:104A10002E44072BC4E90025CDE931367FF71CACC5
:104A200050460D9930AA02F0F5FE00287FF42FAF12
:104A3000329E11E42799002940F33383DDE9118385
:104A40009845A8BF9846B8F1000F0ADD319B46444F
:104A50000133072BC4E900583296319300F33E86A8
:104A60000834119FB8F1000FA8BFA7EB0807002F6B
:104A700000F3CB81DDF844901BF4806FA94440F033
:104A8000EA81279B129A9342C0F271821BF0010FB8
:104A900040F06D82129AAF18A7EB0907D51AAF4202
:104AA000A8BF2F46002F0BDD319B3E440133072B5F
:104AB000C4F8009067603296319300F3858608341D
:104AC000002FA8BFED1B002D7FF7BDAB102D319B34
:104AD0007FF7EBAEDFF8C0911027DDF83480CDF81A
:104AE000549004E00834103D102D7FF7E0AE013300
:104AF0001036072BC4E90097CDE93136F2DD414687
:104B0000504630AA02F086FE00287FF4C0AEDDE9F0
:104B1000313633ACE7E71BF0010F7FF4ECAE012335
:104B2000072FCDE93176256063607FF712AF5046DD
:104B30000D9930AA02F06EFE00287FF4A8AEDDE9E0
:104B400031760DF1CC0904E7129B012B7FF701AF01
:104B5000112B40F37F87504BCDF824B010259B4696
:104B6000DDF83480159305E009F10809103C102C9C
:104B700040F33C8301371036072FC9E900B5CDE972
:104B80003176F1DD4146504630AA02F043FE00285E
:104B90007FF47DAEDDE931760DF1CC09E6E75046D4
:104BA0000D9930AA02F036FE00287FF470AE329ED6
:104BB00033ACFFF738BB0F991BF0100051F8043BE2
:104BC00055D11BF040054ED002460F919BB2E9E44F
:104BD0000F9917F0100051F8043B41D117F0400530
:104BE0003AD00F91024601219BB2A2E45B425F469C
:104BF0004FF02D004FF0010162EB42029AE4099B55
:104C00005CAD0C939FE550460D9930AA02F002FE70
:104C100000287FF43CAEDDE931760DF1CC0972E677
:104C200050460D9930AA02F0F5FD00287FF42FAE12
:104C3000DDE931760DF1CC0972E61BF0010F3FF48E
:104C400002AB31E55CAD7EE51BF4007F40F04F83A5
:104C5000DA171146FFF7FDBB17F4007240F05283DC
:104C60000F91012165E41BF4007240F046830F911F
:104C700098E41BF0100F40F094821BF0400F40F0BE
:104C8000CA831BF4007F00F08C820F9B0A9A1B687A
:104C90001A702FE418A1000808A10008DDE9160128
:104CA00002460B46FBF732FF002840F01C86B9F1A4
:104CB000610F00F01F85B9F1410F00F04A85099B93
:104CC000013300F0EF8329F02003472B00F0E1854A
:104CD0000E90DDE91612002A13464BF48078C0F2DC
:104CE000E68400231593DDE91623CDE92223A9F1FB
:104CF0004103252B00F20E83DFE813F018040C03A8
:104D00000C030C03D803A5040C030C030C030C03C5
:104D10000C030C030C030C030C030C030C030C031B
:104D20000C030C030C030C030C030C030C030C030B
:104D30000C030C030C030C030C030C0318040C03EE
:104D40000C030C03D803A504A64B109619931BF073
:104D5000200200F01A810F9B073323F00703194646
:104D60005A6851F8083B0F911BF0010F09D053EA24
:104D7000020106D030218DF899904BF0020B8DF88E
:104D8000981002212BF48067FFF7D3BB5F46109683
:104D90000FE41096FFF7F9BB934B10961993D6E7E3
:104DA0000F9B43AD1B688DF80C31012306930C93C8
:104DB000FFF70BBB50460D9930AA02F02BFD0028DF
:104DC0007FF465AD329E33AC7BE44021584600F061
:104DD000A1FE0D9B18601861002800F03F8640235B
:104DE0000D9A5361FFF7DCB8099B2946062B28BFB3
:104DF00006232A4609950E95CDE913117B4D06939E
:104E00000F970C931191FFF77BBA102F319B40F352
:104E10001D86774932464FF010090E46DDF8348082
:104E2000159104E00834103F102F40F3EE81013358
:104E30001032072BC4E90069CDE93132F2DD414679
:104E4000504630AA02F0E6FC00287FF420ADDDE9F0
:104E5000313233ACE7E7129B2246EB180993139BE0
:104E60004C46002B3146DDF85080CDF844B0DDF8DB
:104E70006C90209EDDF834B0149531DDB8F1000F50
:104E800040F3338108F1FF3831981D9B01303144E4
:104E90000728C2E900363291319000F38980083248
:104EA000099B99F800001F1B8742A8BF0746002FE7
:104EB0000CDD3198394401300728C2E900473291AE
:104EC000319000F3558199F800000832002FB4BFEB
:104ED0000546C51B002D14DC0444139B002BCDDCC0
:104EE000B8F1000FCEDCCDF86C90A146149D129B5A
:104EF0001446EB1899450E4628BF9946DDF844B094
:104F0000BFE5102D31983A4B23DD0C9410272C4629
:104F10001D4604E0103C102C02F1080216DD0130A1
:104F2000334B10310728C2E90037CDE93101F1DDFB
:104F30005946504630AA02F06DFC00287FF4A7AC19
:104F4000DDE93101103C102C33AAE8DC2B46254664
:104F50000C9C013029440728CDE9310113605560CC
:104F600000F3AD8399F8000008320444B5E7189ABD
:104F70001A991644C4E90012319A32960132072A6E
:104F8000319200F3C883083484E50F991BF01000B8
:104F900051F8043B0AD11BF0400503D002460F91A3
:104FA0009BB2E1E61BF4007240F09D810F91DBE6BD
:104FB0005946504630AA02F02DFC00287FF467AC19
:104FC000329933AA6CE707F480610C970E944FF086
:104FD000000E0F46DFF81CB01B9C0DF5B87CCDF819
:104FE000189010E0849F0008709F0008989F0008A8
:104FF00008A10008CDCCCCCC0A2B72F1000237D32B
:1050000043463246AC46991841F10001ABFB01061C
:1050100026F0030000EB96004FF0CC36091A581A20
:1050200006FB00F662F10009A0FB0B800BFB096692
:105030000644052008F00109A9FB000940184FEAC1
:105040005808303048EAC6780EF1010E0CF1FF35F1
:105050000CF8010C7608002FCED021788E45CBD1EC
:10506000BEF1FF0FC8D00A2B72F1000280F0DA8087
:105070001B94DDF818900C9F0E9CCDF848E0FFF7CC
:105080005EBB50460D9930AA159302F0C3FB002871
:105090007FF4FDAB9DF89720329E159B33ACFFF754
:1050A0009BB801236360319B994A01330136072B7A
:1050B00032963193226000F3FE800834002976D1C5
:1050C000129A0BF0010313433FF4BDA8189B1A9AE0
:1050D0001E44C4E90023319B32960133072B3193E0
:1050E00000F3D38104F1080272E0139B09F1FF3948
:1050F000013B1393C8E601295F467FF410AB3DE402
:1051000050460D9930AA02F085FB00287FF4BFAB12
:10511000329E33ACFFF7C3BA0DF1B8080822002164
:1051200040462995FEF7C8FC099B002BC0F28C80F5
:1051300000260697CDF83090374699460FE0434653
:10514000504643A900F09AFF421C06F10406384479
:1051500000F0BD83484506DC00F0FE830746299B2E
:105160009A59002AEBD1DDF830900C97069F79E030
:105170005946504630AA02F04DFB00287FF487AB19
:1051800099F80000329933AAA0E650460D9930AA4A
:1051900002F040FB00287FF47AAB329E33ACFFF77D
:1051A0003CB80F9B0A9A1B681A60FFF7A3B9189BBB
:1051B0001A9A1E44C4E90023319B32960133072B0F
:1051C000319300F3628104F108020029C0F20B83DD
:1051D000129901330E44072BCDE931361560516029
:1051E0003FF76FAB02F10804FFF72DB8DDF824B0EC
:1051F0000137159B2644072FCDE93176C9F80030D9
:10520000C9F804407FF7A3AB91E416460133159A21
:105210003E44072BCDE931362260676000F32981D7
:10522000083427E4209B1D99ED1A1A46284602F0FF
:105230006FFA637803B101344FF0000EE0E62D22DF
:105240008DF89720FFF74BB8002350461946CDF84C
:10525000008029AA00F0BCFF034601330C9000F047
:10526000368329950C9B002B31D0632B00F3F780FC
:10527000002343AD0E93082200214046FEF71CFC9C
:105280000C9E294633465046CDF8008029AA00F0EE
:105290009FFF864240F0F28300230C9ACDE913333E
:1052A00022EAE271AB549DF897200F97069109937B
:1052B0001193FFF725B850460D9930AA02F0AAFACB
:1052C00000287FF4E4AA2799329E33ACF6E60C9BC3
:1052D0009DF89720CDE913330F9706930993119307
:1052E0000E93FFF70DB82A460F91DBB23CE543F36E
:1052F000C01211465BB2FFF7ACB82A460F91DBB281
:10530000FFF750B90F912A460121DBB2FFF711B91F
:10531000A09F0008099B50460193022300932EABE7
:10532000049329AB039327AB0293DDE9222300F01A
:10533000FBFF1BF0010F054640F007822E9B1B1A56
:105340001293279B1193119BD91C03DB099A9A4254
:1053500080F28E81119BA9F10209013B0021279364
:105360005FFA89F2002B8DF8A820B6BF2D222B22E0
:10537000119B8DF8A920B8BFC3F10103092B40F39D
:1053800092820DF1BF073A46DFF8D0C21E461046A2
:10539000ACFB0321C90801EB8102A3EB42023032CE
:1053A000632E00F8012C0B4600F1FF32EEDC3033A7
:1053B00002F8013C831EBB4280F03A830DF1A90242
:1053C00013F8011BBB4202F8011FF9D15CAB181A9C
:1053D000A0F1AD031C93129B1C9A012B1A440C9252
:1053E00040F370820C9B189A13440C932BF4806347
:1053F00043F4807B00230C9A149322EAE272069213
:1054000013931193159B002B40F021819DF8972059
:105410000993FEF775BF0F9B0A9A1B681A80FFF766
:1054200069B80D9C5046214630AA02F0F3F9A389D1
:1054300003F04003FEF79BBE2846FEF7A5FC119B38
:1054400020EAE0714FF07309CDE913339DF89720FE
:105450000F970C90099306910E93FEF751BF50469B
:10546000591C00F057FB0546002800F0FF820E9003
:1054700001E750460D9930AA02F0CCF900287FF4DC
:1054800006AA329E33ACFFF7F5BA50460D9930AA02
:1054900002F0C0F900287FF4FAA9DDE93136279936
:1054A00033AA92E606230E90099312E40223099A86
:1054B0000132069200932EAB069E049329AB039310
:1054C00027AB019602935046DDE9222300F02CFF22
:1054D00029F02007462F054618BF4527064405D169
:1054E0002B78302B00F03781279B1E440022DDE90A
:1054F00022010023FBF7D8FA002840F022812E9BDE
:10550000B34206D230215A1C2E9219702E9B9E4215
:10551000F9D8279A11925B1B472F12933FF413AFD0
:10552000462F00F02681119B013B17E727AADDE9F2
:10553000220101F05FFF00224FF07F53FBF74CF890
:1055400002460B46CDE9062300220023FBF7ACFA06
:1055500008B101232793099B414A591E414BCDE9CC
:1055600011B4B9F1610F08BF1A462E46D346CDF8E3
:10557000309013958946DDE906459246099207E089
:1055800000220023FBF790FA002840F0D181B946B1
:105590000022354B20462946FBF71EF80D460446EF
:1055A000FBF7CAFA8046FAF7ADFF02460B462046E3
:1055B0002946FAF759FE1AF80830B9F1FF3F32468A
:1055C00004460D4609F1FF3706F8013BD8D11746CE
:1055D000264B0022CDE90645DA46DDF83090129CD4
:1055E000DDF844B0139DFBF787FA002800F0128223
:1055F00009992E9716F8012CC97B3346914209D19F
:10560000302003F8010C2E9B5A1E2E9213F8012C09
:105610009142F6D0392A0BBF099A0132927AD2B25E
:1056200003F8012C33465B1B1293279BB9F1610FE2
:10563000119303F1FF33279300F0C28150224FF002
:10564000410901218EE6099B0693032332E72D22AF
:1056500000238DF897200993FEF755BECDCCCCCC16
:10566000849F0008709F0008000030400000E03F69
:10567000DDE91123934200F3DB801BF0010F119B46
:1056800000F04781189A13440C931BF4806F00F0CC
:105690007A81119B4FF06709002B7DDC0C9B23EA7C
:1056A000E37306930023C346CDE91333AAE62291A0
:1056B0002D2103F1004315912393FFF718BB5946A1
:1056C000504630AA02F0A6F800287FF4E0A899F826
:1056D0000000329933AA0444FFF7FFBB50460D99EE
:1056E00030AA02F097F800287FF4D1A8329E33AC9C
:1056F000FFF7B7B978238DF8993030238DF89830BB
:10570000099B4BF0020B632B00F3B980002343ADE0
:105710000E93FFF7DEBA50460D9930AA02F07AF8E0
:1057200000287FF4B4A8279B329E33ACFFF7B2B9B0
:10573000AE491591FEF71ABE00230E460993FEF7F7
:1057400072BC279A33461192E5E6099B4727C61893
:10575000CCE65823CFE70022DDE922010023FBF746
:10576000A3F9002800F02781279B1E441193731B87
:1057700012931199099A0BF00103002943EA0203DD
:1057800040F32D81002B40F001814FF06609119B01
:105790000C931BF4806F81D01B990B78FF2B00F0CA
:1057A00061810026119A304604E001300131FF2B5F
:1057B00000F0D880934280F2D580D21A4B78002B2B
:1057C000F3D10B780136F2E750460D9930AA02F07A
:1057D00021F800287FF45BA8279D129B329E33ACF2
:1057E0005D1BFFF76DB94F4210312CDADFF80082F4
:1057F0001024CDF8548003E00832103F102F24DD30
:1058000001331036072BC2E90084CDE93136F3DDD0
:1058100050460D9930AA01F0FDFF00287FF437A80B
:10582000DDE9313633AAE8E7704A1592FFF7EEB8A2
:10583000129B189A9A18119B0C92002B40F3AE8081
:105840004FF06709A5E76A491591013315993E4460
:10585000072BCDE931361160576000F3B380083271
:10586000B6E4634A1592FEF7C6BF0D9A938943F0DA
:10587000400393814FF0FF330A93FEF77BBC504601
:10588000591C00F047F905460028EED00E90FFF7AE
:1058900020BA099B002B7FF41BAA099B0E930123BE
:1058A0000993FFF716BA002940F0828030228DF864
:1058B000AA200DF1AB02303302F8013B2AABD31A18
:1058C0001C9388E51BF0010F3FF490AD8AE50022A0
:1058D000D3460D9B0E92B3F90C3043F040030D9A62
:1058E0009381FEF7D5BF179B0320002BB8BF2D2255
:1058F0004FF00003A8BF9DF8972019460E933D4D29
:105900003D4BB8BF8DF897202BF0800B0690FEF72B
:10591000EEBC0C93B9E6099B4FF07309CDE9130077
:105920009DF897200F9706930C930990FEF7E8BC1B
:1059300049460029DA46DDF83090129CDDF844B083
:10594000139DFFF66FAE4B1C30223146334401F8F5
:10595000012B9942FBD166E6099BDDF83090069F4A
:105960000C937FE4CDE913061B911192DDE913320C
:10597000209913440C9AC34601FB03230C9323EA9A
:10598000E37306933EE54FF0670987E61346189ADE
:105990004FF0660913440B440C93FAE6C3F101037C
:1059A0001A4422EAE2734FF067090C92069379E6F3
:1059B0000DF1AA027FE7069BC3F10103279394E54B
:1059C00070223EE650460D9930AA01F023FF0028D0
:1059D0007EF45DAFDDE9313633AAFFF7F9BB6BB971
:1059E00001234FF0660906930C935BE618A10008AB
:1059F00008A100086C9F0008689F0008189B4FF0E2
:105A0000660903F1010B099B5B440C9323EAE373E2
:105A1000069347E60022DDE906011C4BFBF744F83C
:105A200000283FF4FFAD18F0010F3FF4FBADDFE5B8
:105A300002231C93CFE40F9A73780E4652F8041B8E
:105A40000F9241EAE1720992FEF7EBBA104A159201
:105A5000FFF7DCBB0E4B1593FFF7CABB0C23CBF84B
:105A6000003007E70023CDE913337FE70D9BD346D2
:105A7000B3F90C300E9043F0400330E70D9BD34652
:105A8000B3F90C3043F0400329E700BF0000E03FCA
:105A900008A100082DE9F8431B4D064628689846E2
:105AA0000F469146FEF798F8184B1C681CB32868FF
:105AB00065681F2D22DC4EB96B1C0235636044F80B
:105AC0002570FEF78BF80020BDE8F883012304EB76
:105AD0008501C1F88890D4F88821AB401A43022E82
